{
  "_format": "hh-sol-artifact-1",
  "contractName": "TestNFT",
  "sourceName": "contracts/TestNFT.sol",
  "abi": [
    {
      "inputs": [],
      "stateMutability": "nonpayable",
      "type": "constructor"
    },
    {
      "anonymous": false,
      "inputs": [
        {
          "indexed": true,
          "internalType": "address",
          "name": "owner",
          "type": "address"
        },
        {
          "indexed": true,
          "internalType": "address",
          "name": "approved",
          "type": "address"
        },
        {
          "indexed": true,
          "internalType": "uint256",
          "name": "tokenId",
          "type": "uint256"
        }
      ],
      "name": "Approval",
      "type": "event"
    },
    {
      "anonymous": false,
      "inputs": [
        {
          "indexed": true,
          "internalType": "address",
          "name": "owner",
          "type": "address"
        },
        {
          "indexed": true,
          "internalType": "address",
          "name": "operator",
          "type": "address"
        },
        {
          "indexed": false,
          "internalType": "bool",
          "name": "approved",
          "type": "bool"
        }
      ],
      "name": "ApprovalForAll",
      "type": "event"
    },
    {
      "anonymous": false,
      "inputs": [
        {
          "indexed": true,
          "internalType": "address",
          "name": "previousOwner",
          "type": "address"
        },
        {
          "indexed": true,
          "internalType": "address",
          "name": "newOwner",
          "type": "address"
        }
      ],
      "name": "OwnershipTransferred",
      "type": "event"
    },
    {
      "anonymous": false,
      "inputs": [
        {
          "indexed": true,
          "internalType": "address",
          "name": "from",
          "type": "address"
        },
        {
          "indexed": true,
          "internalType": "address",
          "name": "to",
          "type": "address"
        },
        {
          "indexed": true,
          "internalType": "uint256",
          "name": "tokenId",
          "type": "uint256"
        }
      ],
      "name": "Transfer",
      "type": "event"
    },
    {
      "inputs": [
        {
          "internalType": "address",
          "name": "to",
          "type": "address"
        },
        {
          "internalType": "uint256",
          "name": "tokenId",
          "type": "uint256"
        }
      ],
      "name": "approve",
      "outputs": [],
      "stateMutability": "nonpayable",
      "type": "function"
    },
    {
      "inputs": [
        {
          "internalType": "address",
          "name": "owner",
          "type": "address"
        }
      ],
      "name": "balanceOf",
      "outputs": [
        {
          "internalType": "uint256",
          "name": "",
          "type": "uint256"
        }
      ],
      "stateMutability": "view",
      "type": "function"
    },
    {
      "inputs": [
        {
          "internalType": "uint256",
          "name": "tokenId",
          "type": "uint256"
        }
      ],
      "name": "getApproved",
      "outputs": [
        {
          "internalType": "address",
          "name": "",
          "type": "address"
        }
      ],
      "stateMutability": "view",
      "type": "function"
    },
    {
      "inputs": [
        {
          "internalType": "address",
          "name": "owner",
          "type": "address"
        },
        {
          "internalType": "address",
          "name": "operator",
          "type": "address"
        }
      ],
      "name": "isApprovedForAll",
      "outputs": [
        {
          "internalType": "bool",
          "name": "",
          "type": "bool"
        }
      ],
      "stateMutability": "view",
      "type": "function"
    },
    {
      "inputs": [
        {
          "internalType": "string",
          "name": "tokenURI",
          "type": "string"
        }
      ],
      "name": "mintNFT",
      "outputs": [
        {
          "internalType": "uint256",
          "name": "",
          "type": "uint256"
        }
      ],
      "stateMutability": "nonpayable",
      "type": "function"
    },
    {
      "inputs": [
        {
          "internalType": "string",
          "name": "uri",
          "type": "string"
        }
      ],
      "name": "mintToken",
      "outputs": [],
      "stateMutability": "payable",
      "type": "function"
    },
    {
      "inputs": [],
      "name": "name",
      "outputs": [
        {
          "internalType": "string",
          "name": "",
          "type": "string"
        }
      ],
      "stateMutability": "view",
      "type": "function"
    },
    {
      "inputs": [],
      "name": "owner",
      "outputs": [
        {
          "internalType": "address",
          "name": "",
          "type": "address"
        }
      ],
      "stateMutability": "view",
      "type": "function"
    },
    {
      "inputs": [
        {
          "internalType": "uint256",
          "name": "tokenId",
          "type": "uint256"
        }
      ],
      "name": "ownerOf",
      "outputs": [
        {
          "internalType": "address",
          "name": "",
          "type": "address"
        }
      ],
      "stateMutability": "view",
      "type": "function"
    },
    {
      "inputs": [],
      "name": "renounceOwnership",
      "outputs": [],
      "stateMutability": "nonpayable",
      "type": "function"
    },
    {
      "inputs": [
        {
          "internalType": "address",
          "name": "from",
          "type": "address"
        },
        {
          "internalType": "address",
          "name": "to",
          "type": "address"
        },
        {
          "internalType": "uint256",
          "name": "tokenId",
          "type": "uint256"
        }
      ],
      "name": "safeTransferFrom",
      "outputs": [],
      "stateMutability": "nonpayable",
      "type": "function"
    },
    {
      "inputs": [
        {
          "internalType": "address",
          "name": "from",
          "type": "address"
        },
        {
          "internalType": "address",
          "name": "to",
          "type": "address"
        },
        {
          "internalType": "uint256",
          "name": "tokenId",
          "type": "uint256"
        },
        {
          "internalType": "bytes",
          "name": "data",
          "type": "bytes"
        }
      ],
      "name": "safeTransferFrom",
      "outputs": [],
      "stateMutability": "nonpayable",
      "type": "function"
    },
    {
      "inputs": [
        {
          "internalType": "address",
          "name": "operator",
          "type": "address"
        },
        {
          "internalType": "bool",
          "name": "approved",
          "type": "bool"
        }
      ],
      "name": "setApprovalForAll",
      "outputs": [],
      "stateMutability": "nonpayable",
      "type": "function"
    },
    {
      "inputs": [
        {
          "internalType": "bytes4",
          "name": "interfaceId",
          "type": "bytes4"
        }
      ],
      "name": "supportsInterface",
      "outputs": [
        {
          "internalType": "bool",
          "name": "",
          "type": "bool"
        }
      ],
      "stateMutability": "view",
      "type": "function"
    },
    {
      "inputs": [],
      "name": "symbol",
      "outputs": [
        {
          "internalType": "string",
          "name": "",
          "type": "string"
        }
      ],
      "stateMutability": "view",
      "type": "function"
    },
    {
      "inputs": [
        {
          "internalType": "uint256",
          "name": "tokenId",
          "type": "uint256"
        }
      ],
      "name": "tokenURI",
      "outputs": [
        {
          "internalType": "string",
          "name": "",
          "type": "string"
        }
      ],
      "stateMutability": "view",
      "type": "function"
    },
    {
      "inputs": [
        {
          "internalType": "address",
          "name": "from",
          "type": "address"
        },
        {
          "internalType": "address",
          "name": "to",
          "type": "address"
        },
        {
          "internalType": "uint256",
          "name": "tokenId",
          "type": "uint256"
        }
      ],
      "name": "transferFrom",
      "outputs": [],
      "stateMutability": "nonpayable",
      "type": "function"
    },
    {
      "inputs": [
        {
          "internalType": "address",
          "name": "newOwner",
          "type": "address"
        }
      ],
      "name": "transferOwnership",
      "outputs": [],
      "stateMutability": "nonpayable",
      "type": "function"
    }
  ],
  "bytecode": "0x60806040523480156200001157600080fd5b506040518060400160405280600781526020017f546573744e4654000000000000000000000000000000000000000000000000008152506040518060400160405280600581526020017f4e46542d4900000000000000000000000000000000000000000000000000000081525081600090816200008f919062000412565b508060019081620000a1919062000412565b505050620000c4620000b8620000ca60201b60201c565b620000d260201b60201c565b620004f9565b600033905090565b6000600760009054906101000a900473ffffffffffffffffffffffffffffffffffffffff16905081600760006101000a81548173ffffffffffffffffffffffffffffffffffffffff021916908373ffffffffffffffffffffffffffffffffffffffff1602179055508173ffffffffffffffffffffffffffffffffffffffff168173ffffffffffffffffffffffffffffffffffffffff167f8be0079c531659141344cd1fd0a4f28419497f9722a3daafe3b4186f6b6457e060405160405180910390a35050565b600081519050919050565b7f4e487b7100000000000000000000000000000000000000000000000000000000600052604160045260246000fd5b7f4e487b7100000000000000000000000000000000000000000000000000000000600052602260045260246000fd5b600060028204905060018216806200021a57607f821691505b60208210810362000230576200022f620001d2565b5b50919050565b60008190508160005260206000209050919050565b60006020601f8301049050919050565b600082821b905092915050565b6000600883026200029a7fffffffffffffffffffffffffffffffffffffffffffffffffffffffffffffffff826200025b565b620002a686836200025b565b95508019841693508086168417925050509392505050565b6000819050919050565b6000819050919050565b6000620002f3620002ed620002e784620002be565b620002c8565b620002be565b9050919050565b6000819050919050565b6200030f83620002d2565b620003276200031e82620002fa565b84845462000268565b825550505050565b600090565b6200033e6200032f565b6200034b81848462000304565b505050565b5b8181101562000373576200036760008262000334565b60018101905062000351565b5050565b601f821115620003c2576200038c8162000236565b62000397846200024b565b81016020851015620003a7578190505b620003bf620003b6856200024b565b83018262000350565b50505b505050565b600082821c905092915050565b6000620003e760001984600802620003c7565b1980831691505092915050565b6000620004028383620003d4565b9150826002028217905092915050565b6200041d8262000198565b67ffffffffffffffff811115620004395762000438620001a3565b5b62000445825462000201565b6200045282828562000377565b600060209050601f8311600181146200048a576000841562000475578287015190505b620004818582620003f4565b865550620004f1565b601f1984166200049a8662000236565b60005b82811015620004c4578489015182556001820191506020850194506020810190506200049d565b86831015620004e45784890151620004e0601f891682620003d4565b8355505b6001600288020188555050505b505050505050565b61331b80620005096000396000f3fe6080604052600436106101095760003560e01c8063715018a611610095578063b88d4fde11610064578063b88d4fde1461035a578063c87b56dd14610383578063e985e9c5146103c0578063f2fde38b146103fd578063fb37e8831461042657610109565b8063715018a6146102c45780638da5cb5b146102db57806395d89b4114610306578063a22cb4651461033157610109565b806323b872dd116100dc57806323b872dd146101dc57806333eba49a1461020557806342842e0e146102215780636352211e1461024a57806370a082311461028757610109565b806301ffc9a71461010e57806306fdde031461014b578063081812fc14610176578063095ea7b3146101b3575b600080fd5b34801561011a57600080fd5b5061013560048036038101906101309190611caf565b610463565b6040516101429190611cf7565b60405180910390f35b34801561015757600080fd5b50610160610545565b60405161016d9190611da2565b60405180910390f35b34801561018257600080fd5b5061019d60048036038101906101989190611dfa565b6105d7565b6040516101aa9190611e68565b60405180910390f35b3480156101bf57600080fd5b506101da60048036038101906101d59190611eaf565b61065c565b005b3480156101e857600080fd5b5061020360048036038101906101fe9190611eef565b610773565b005b61021f600480360381019061021a9190612077565b6107d3565b005b34801561022d57600080fd5b5061024860048036038101906102439190611eef565b610847565b005b34801561025657600080fd5b50610271600480360381019061026c9190611dfa565b610867565b60405161027e9190611e68565b60405180910390f35b34801561029357600080fd5b506102ae60048036038101906102a991906120c0565b610918565b6040516102bb91906120fc565b60405180910390f35b3480156102d057600080fd5b506102d96109cf565b005b3480156102e757600080fd5b506102f0610a57565b6040516102fd9190611e68565b60405180910390f35b34801561031257600080fd5b5061031b610a81565b6040516103289190611da2565b60405180910390f35b34801561033d57600080fd5b5061035860048036038101906103539190612143565b610b13565b005b34801561036657600080fd5b50610381600480360381019061037c9190612224565b610b29565b005b34801561038f57600080fd5b506103aa60048036038101906103a59190611dfa565b610b8b565b6040516103b79190611da2565b60405180910390f35b3480156103cc57600080fd5b506103e760048036038101906103e291906122a7565b610cdc565b6040516103f49190611cf7565b60405180910390f35b34801561040957600080fd5b50610424600480360381019061041f91906120c0565b610d70565b005b34801561043257600080fd5b5061044d60048036038101906104489190612077565b610e67565b60405161045a91906120fc565b60405180910390f35b60007f80ac58cd000000000000000000000000000000000000000000000000000000007bffffffffffffffffffffffffffffffffffffffffffffffffffffffff1916827bffffffffffffffffffffffffffffffffffffffffffffffffffffffff1916148061052e57507f5b5e139f000000000000000000000000000000000000000000000000000000007bffffffffffffffffffffffffffffffffffffffffffffffffffffffff1916827bffffffffffffffffffffffffffffffffffffffffffffffffffffffff1916145b8061053e575061053d82610e9e565b5b9050919050565b60606000805461055490612316565b80601f016020809104026020016040519081016040528092919081815260200182805461058090612316565b80156105cd5780601f106105a2576101008083540402835291602001916105cd565b820191906000526020600020905b8154815290600101906020018083116105b057829003601f168201915b5050505050905090565b60006105e282610f08565b610621576040517f08c379a0000000000000000000000000000000000000000000000000000000008152600401610618906123b9565b60405180910390fd5b6004600083815260200190815260200160002060009054906101000a900473ffffffffffffffffffffffffffffffffffffffff169050919050565b600061066782610867565b90508073ffffffffffffffffffffffffffffffffffffffff168373ffffffffffffffffffffffffffffffffffffffff16036106d7576040517f08c379a00000000000000000000000000000000000000000000000000000000081526004016106ce9061244b565b60405180910390fd5b8073ffffffffffffffffffffffffffffffffffffffff166106f6610f74565b73ffffffffffffffffffffffffffffffffffffffff16148061072557506107248161071f610f74565b610cdc565b5b610764576040517f08c379a000000000000000000000000000000000000000000000000000000000815260040161075b906124dd565b60405180910390fd5b61076e8383610f7c565b505050565b61078461077e610f74565b82611035565b6107c3576040517f08c379a00000000000000000000000000000000000000000000000000000000081526004016107ba9061256f565b60405180910390fd5b6107ce838383611113565b505050565b600a341015610817576040517f08c379a000000000000000000000000000000000000000000000000000000000815260040161080e90612601565b60405180910390fd5b6108216008611379565b600061082d600861138f565b9050610839338261139d565b6108438183611576565b5050565b61086283838360405180602001604052806000815250610b29565b505050565b6000806002600084815260200190815260200160002060009054906101000a900473ffffffffffffffffffffffffffffffffffffffff169050600073ffffffffffffffffffffffffffffffffffffffff168173ffffffffffffffffffffffffffffffffffffffff160361090f576040517f08c379a000000000000000000000000000000000000000000000000000000000815260040161090690612693565b60405180910390fd5b80915050919050565b60008073ffffffffffffffffffffffffffffffffffffffff168273ffffffffffffffffffffffffffffffffffffffff1603610988576040517f08c379a000000000000000000000000000000000000000000000000000000000815260040161097f90612725565b60405180910390fd5b600360008373ffffffffffffffffffffffffffffffffffffffff1673ffffffffffffffffffffffffffffffffffffffff168152602001908152602001600020549050919050565b6109d7610f74565b73ffffffffffffffffffffffffffffffffffffffff166109f5610a57565b73ffffffffffffffffffffffffffffffffffffffff1614610a4b576040517f08c379a0000000000000000000000000000000000000000000000000000000008152600401610a4290612791565b60405180910390fd5b610a5560006115e3565b565b6000600760009054906101000a900473ffffffffffffffffffffffffffffffffffffffff16905090565b606060018054610a9090612316565b80601f0160208091040260200160405190810160405280929190818152602001828054610abc90612316565b8015610b095780601f10610ade57610100808354040283529160200191610b09565b820191906000526020600020905b815481529060010190602001808311610aec57829003601f168201915b5050505050905090565b610b25610b1e610f74565b83836116a9565b5050565b610b3a610b34610f74565b83611035565b610b79576040517f08c379a0000000000000000000000000000000000000000000000000000000008152600401610b709061256f565b60405180910390fd5b610b8584848484611815565b50505050565b6060610b9682610f08565b610bd5576040517f08c379a0000000000000000000000000000000000000000000000000000000008152600401610bcc90612823565b60405180910390fd5b6000600660008481526020019081526020016000208054610bf590612316565b80601f0160208091040260200160405190810160405280929190818152602001828054610c2190612316565b8015610c6e5780601f10610c4357610100808354040283529160200191610c6e565b820191906000526020600020905b815481529060010190602001808311610c5157829003601f168201915b505050505090506000610c7f611871565b90506000815103610c94578192505050610cd7565b600082511115610cc9578082604051602001610cb192919061287f565b60405160208183030381529060405292505050610cd7565b610cd284611888565b925050505b919050565b6000600560008473ffffffffffffffffffffffffffffffffffffffff1673ffffffffffffffffffffffffffffffffffffffff16815260200190815260200160002060008373ffffffffffffffffffffffffffffffffffffffff1673ffffffffffffffffffffffffffffffffffffffff16815260200190815260200160002060009054906101000a900460ff16905092915050565b610d78610f74565b73ffffffffffffffffffffffffffffffffffffffff16610d96610a57565b73ffffffffffffffffffffffffffffffffffffffff1614610dec576040517f08c379a0000000000000000000000000000000000000000000000000000000008152600401610de390612791565b60405180910390fd5b600073ffffffffffffffffffffffffffffffffffffffff168173ffffffffffffffffffffffffffffffffffffffff1603610e5b576040517f08c379a0000000000000000000000000000000000000000000000000000000008152600401610e5290612915565b60405180910390fd5b610e64816115e3565b50565b6000610e736008611379565b6000610e7f600861138f565b9050610e8b338261139d565b610e958184611576565b80915050919050565b60007f01ffc9a7000000000000000000000000000000000000000000000000000000007bffffffffffffffffffffffffffffffffffffffffffffffffffffffff1916827bffffffffffffffffffffffffffffffffffffffffffffffffffffffff1916149050919050565b60008073ffffffffffffffffffffffffffffffffffffffff166002600084815260200190815260200160002060009054906101000a900473ffffffffffffffffffffffffffffffffffffffff1673ffffffffffffffffffffffffffffffffffffffff1614159050919050565b600033905090565b816004600083815260200190815260200160002060006101000a81548173ffffffffffffffffffffffffffffffffffffffff021916908373ffffffffffffffffffffffffffffffffffffffff160217905550808273ffffffffffffffffffffffffffffffffffffffff16610fef83610867565b73ffffffffffffffffffffffffffffffffffffffff167f8c5be1e5ebec7d5bd14f71427d1e84f3dd0314c0f7b2291e5b200ac8c7c3b92560405160405180910390a45050565b600061104082610f08565b61107f576040517f08c379a0000000000000000000000000000000000000000000000000000000008152600401611076906129a7565b60405180910390fd5b600061108a83610867565b90508073ffffffffffffffffffffffffffffffffffffffff168473ffffffffffffffffffffffffffffffffffffffff1614806110cc57506110cb8185610cdc565b5b8061110a57508373ffffffffffffffffffffffffffffffffffffffff166110f2846105d7565b73ffffffffffffffffffffffffffffffffffffffff16145b91505092915050565b8273ffffffffffffffffffffffffffffffffffffffff1661113382610867565b73ffffffffffffffffffffffffffffffffffffffff1614611189576040517f08c379a000000000000000000000000000000000000000000000000000000000815260040161118090612a39565b60405180910390fd5b600073ffffffffffffffffffffffffffffffffffffffff168273ffffffffffffffffffffffffffffffffffffffff16036111f8576040517f08c379a00000000000000000000000000000000000000000000000000000000081526004016111ef90612acb565b60405180910390fd5b61120383838361192f565b61120e600082610f7c565b6001600360008573ffffffffffffffffffffffffffffffffffffffff1673ffffffffffffffffffffffffffffffffffffffff168152602001908152602001600020600082825461125e9190612b1a565b925050819055506001600360008473ffffffffffffffffffffffffffffffffffffffff1673ffffffffffffffffffffffffffffffffffffffff16815260200190815260200160002060008282546112b59190612b4e565b92505081905550816002600083815260200190815260200160002060006101000a81548173ffffffffffffffffffffffffffffffffffffffff021916908373ffffffffffffffffffffffffffffffffffffffff160217905550808273ffffffffffffffffffffffffffffffffffffffff168473ffffffffffffffffffffffffffffffffffffffff167fddf252ad1be2c89b69c2b068fc378daa952ba7f163c4a11628f55a4df523b3ef60405160405180910390a4611374838383611934565b505050565b6001816000016000828254019250508190555050565b600081600001549050919050565b600073ffffffffffffffffffffffffffffffffffffffff168273ffffffffffffffffffffffffffffffffffffffff160361140c576040517f08c379a000000000000000000000000000000000000000000000000000000000815260040161140390612bce565b60405180910390fd5b61141581610f08565b15611455576040517f08c379a000000000000000000000000000000000000000000000000000000000815260040161144c90612c3a565b60405180910390fd5b6114616000838361192f565b6001600360008473ffffffffffffffffffffffffffffffffffffffff1673ffffffffffffffffffffffffffffffffffffffff16815260200190815260200160002060008282546114b19190612b4e565b92505081905550816002600083815260200190815260200160002060006101000a81548173ffffffffffffffffffffffffffffffffffffffff021916908373ffffffffffffffffffffffffffffffffffffffff160217905550808273ffffffffffffffffffffffffffffffffffffffff16600073ffffffffffffffffffffffffffffffffffffffff167fddf252ad1be2c89b69c2b068fc378daa952ba7f163c4a11628f55a4df523b3ef60405160405180910390a461157260008383611934565b5050565b61157f82610f08565b6115be576040517f08c379a00000000000000000000000000000000000000000000000000000000081526004016115b590612ccc565b60405180910390fd5b806006600084815260200190815260200160002090816115de9190612e98565b505050565b6000600760009054906101000a900473ffffffffffffffffffffffffffffffffffffffff16905081600760006101000a81548173ffffffffffffffffffffffffffffffffffffffff021916908373ffffffffffffffffffffffffffffffffffffffff1602179055508173ffffffffffffffffffffffffffffffffffffffff168173ffffffffffffffffffffffffffffffffffffffff167f8be0079c531659141344cd1fd0a4f28419497f9722a3daafe3b4186f6b6457e060405160405180910390a35050565b8173ffffffffffffffffffffffffffffffffffffffff168373ffffffffffffffffffffffffffffffffffffffff1603611717576040517f08c379a000000000000000000000000000000000000000000000000000000000815260040161170e90612fb6565b60405180910390fd5b80600560008573ffffffffffffffffffffffffffffffffffffffff1673ffffffffffffffffffffffffffffffffffffffff16815260200190815260200160002060008473ffffffffffffffffffffffffffffffffffffffff1673ffffffffffffffffffffffffffffffffffffffff16815260200190815260200160002060006101000a81548160ff0219169083151502179055508173ffffffffffffffffffffffffffffffffffffffff168373ffffffffffffffffffffffffffffffffffffffff167f17307eab39ab6107e8899845ad3d59bd9653f200f220920489ca2b5937696c31836040516118089190611cf7565b60405180910390a3505050565b611820848484611113565b61182c84848484611939565b61186b576040517f08c379a000000000000000000000000000000000000000000000000000000000815260040161186290613048565b60405180910390fd5b50505050565b606060405180602001604052806000815250905090565b606061189382610f08565b6118d2576040517f08c379a00000000000000000000000000000000000000000000000000000000081526004016118c9906130da565b60405180910390fd5b60006118dc611871565b905060008151116118fc5760405180602001604052806000815250611927565b8061190684611ac0565b60405160200161191792919061287f565b6040516020818303038152906040525b915050919050565b505050565b505050565b600061195a8473ffffffffffffffffffffffffffffffffffffffff16611c20565b15611ab3578373ffffffffffffffffffffffffffffffffffffffff1663150b7a02611983610f74565b8786866040518563ffffffff1660e01b81526004016119a5949392919061314f565b6020604051808303816000875af19250505080156119e157506040513d601f19601f820116820180604052508101906119de91906131b0565b60015b611a63573d8060008114611a11576040519150601f19603f3d011682016040523d82523d6000602084013e611a16565b606091505b506000815103611a5b576040517f08c379a0000000000000000000000000000000000000000000000000000000008152600401611a5290613048565b60405180910390fd5b805181602001fd5b63150b7a0260e01b7bffffffffffffffffffffffffffffffffffffffffffffffffffffffff1916817bffffffffffffffffffffffffffffffffffffffffffffffffffffffff191614915050611ab8565b600190505b949350505050565b606060008203611b07576040518060400160405280600181526020017f30000000000000000000000000000000000000000000000000000000000000008152509050611c1b565b600082905060005b60008214611b39578080611b22906131dd565b915050600a82611b329190613254565b9150611b0f565b60008167ffffffffffffffff811115611b5557611b54611f4c565b5b6040519080825280601f01601f191660200182016040528015611b875781602001600182028036833780820191505090505b5090505b60008514611c1457600182611ba09190612b1a565b9150600a85611baf9190613285565b6030611bbb9190612b4e565b60f81b818381518110611bd157611bd06132b6565b5b60200101907effffffffffffffffffffffffffffffffffffffffffffffffffffffffffffff1916908160001a905350600a85611c0d9190613254565b9450611b8b565b8093505050505b919050565b6000808273ffffffffffffffffffffffffffffffffffffffff163b119050919050565b6000604051905090565b600080fd5b600080fd5b60007fffffffff0000000000000000000000000000000000000000000000000000000082169050919050565b611c8c81611c57565b8114611c9757600080fd5b50565b600081359050611ca981611c83565b92915050565b600060208284031215611cc557611cc4611c4d565b5b6000611cd384828501611c9a565b91505092915050565b60008115159050919050565b611cf181611cdc565b82525050565b6000602082019050611d0c6000830184611ce8565b92915050565b600081519050919050565b600082825260208201905092915050565b60005b83811015611d4c578082015181840152602081019050611d31565b60008484015250505050565b6000601f19601f8301169050919050565b6000611d7482611d12565b611d7e8185611d1d565b9350611d8e818560208601611d2e565b611d9781611d58565b840191505092915050565b60006020820190508181036000830152611dbc8184611d69565b905092915050565b6000819050919050565b611dd781611dc4565b8114611de257600080fd5b50565b600081359050611df481611dce565b92915050565b600060208284031215611e1057611e0f611c4d565b5b6000611e1e84828501611de5565b91505092915050565b600073ffffffffffffffffffffffffffffffffffffffff82169050919050565b6000611e5282611e27565b9050919050565b611e6281611e47565b82525050565b6000602082019050611e7d6000830184611e59565b92915050565b611e8c81611e47565b8114611e9757600080fd5b50565b600081359050611ea981611e83565b92915050565b60008060408385031215611ec657611ec5611c4d565b5b6000611ed485828601611e9a565b9250506020611ee585828601611de5565b9150509250929050565b600080600060608486031215611f0857611f07611c4d565b5b6000611f1686828701611e9a565b9350506020611f2786828701611e9a565b9250506040611f3886828701611de5565b9150509250925092565b600080fd5b600080fd5b7f4e487b7100000000000000000000000000000000000000000000000000000000600052604160045260246000fd5b611f8482611d58565b810181811067ffffffffffffffff82111715611fa357611fa2611f4c565b5b80604052505050565b6000611fb6611c43565b9050611fc28282611f7b565b919050565b600067ffffffffffffffff821115611fe257611fe1611f4c565b5b611feb82611d58565b9050602081019050919050565b82818337600083830152505050565b600061201a61201584611fc7565b611fac565b90508281526020810184848401111561203657612035611f47565b5b612041848285611ff8565b509392505050565b600082601f83011261205e5761205d611f42565b5b813561206e848260208601612007565b91505092915050565b60006020828403121561208d5761208c611c4d565b5b600082013567ffffffffffffffff8111156120ab576120aa611c52565b5b6120b784828501612049565b91505092915050565b6000602082840312156120d6576120d5611c4d565b5b60006120e484828501611e9a565b91505092915050565b6120f681611dc4565b82525050565b600060208201905061211160008301846120ed565b92915050565b61212081611cdc565b811461212b57600080fd5b50565b60008135905061213d81612117565b92915050565b6000806040838503121561215a57612159611c4d565b5b600061216885828601611e9a565b92505060206121798582860161212e565b9150509250929050565b600067ffffffffffffffff82111561219e5761219d611f4c565b5b6121a782611d58565b9050602081019050919050565b60006121c76121c284612183565b611fac565b9050828152602081018484840111156121e3576121e2611f47565b5b6121ee848285611ff8565b509392505050565b600082601f83011261220b5761220a611f42565b5b813561221b8482602086016121b4565b91505092915050565b6000806000806080858703121561223e5761223d611c4d565b5b600061224c87828801611e9a565b945050602061225d87828801611e9a565b935050604061226e87828801611de5565b925050606085013567ffffffffffffffff81111561228f5761228e611c52565b5b61229b878288016121f6565b91505092959194509250565b600080604083850312156122be576122bd611c4d565b5b60006122cc85828601611e9a565b92505060206122dd85828601611e9a565b9150509250929050565b7f4e487b7100000000000000000000000000000000000000000000000000000000600052602260045260246000fd5b6000600282049050600182168061232e57607f821691505b602082108103612341576123406122e7565b5b50919050565b7f4552433732313a20617070726f76656420717565727920666f72206e6f6e657860008201527f697374656e7420746f6b656e0000000000000000000000000000000000000000602082015250565b60006123a3602c83611d1d565b91506123ae82612347565b604082019050919050565b600060208201905081810360008301526123d281612396565b9050919050565b7f4552433732313a20617070726f76616c20746f2063757272656e74206f776e6560008201527f7200000000000000000000000000000000000000000000000000000000000000602082015250565b6000612435602183611d1d565b9150612440826123d9565b604082019050919050565b6000602082019050818103600083015261246481612428565b9050919050565b7f4552433732313a20617070726f76652063616c6c6572206973206e6f74206f7760008201527f6e6572206e6f7220617070726f76656420666f7220616c6c0000000000000000602082015250565b60006124c7603883611d1d565b91506124d28261246b565b604082019050919050565b600060208201905081810360008301526124f6816124ba565b9050919050565b7f4552433732313a207472616e736665722063616c6c6572206973206e6f74206f60008201527f776e6572206e6f7220617070726f766564000000000000000000000000000000602082015250565b6000612559603183611d1d565b9150612564826124fd565b604082019050919050565b600060208201905081810360008301526125888161254c565b9050919050565b7f4e6f7420656e6f756768204554482073656e743b20636865636b20707269636560008201527f2100000000000000000000000000000000000000000000000000000000000000602082015250565b60006125eb602183611d1d565b91506125f68261258f565b604082019050919050565b6000602082019050818103600083015261261a816125de565b9050919050565b7f4552433732313a206f776e657220717565727920666f72206e6f6e657869737460008201527f656e7420746f6b656e0000000000000000000000000000000000000000000000602082015250565b600061267d602983611d1d565b915061268882612621565b604082019050919050565b600060208201905081810360008301526126ac81612670565b9050919050565b7f4552433732313a2061646472657373207a65726f206973206e6f74206120766160008201527f6c6964206f776e65720000000000000000000000000000000000000000000000602082015250565b600061270f602983611d1d565b915061271a826126b3565b604082019050919050565b6000602082019050818103600083015261273e81612702565b9050919050565b7f4f776e61626c653a2063616c6c6572206973206e6f7420746865206f776e6572600082015250565b600061277b602083611d1d565b915061278682612745565b602082019050919050565b600060208201905081810360008301526127aa8161276e565b9050919050565b7f45524337323155524953746f726167653a2055524920717565727920666f722060008201527f6e6f6e6578697374656e7420746f6b656e000000000000000000000000000000602082015250565b600061280d603183611d1d565b9150612818826127b1565b604082019050919050565b6000602082019050818103600083015261283c81612800565b9050919050565b600081905092915050565b600061285982611d12565b6128638185612843565b9350612873818560208601611d2e565b80840191505092915050565b600061288b828561284e565b9150612897828461284e565b91508190509392505050565b7f4f776e61626c653a206e6577206f776e657220697320746865207a65726f206160008201527f6464726573730000000000000000000000000000000000000000000000000000602082015250565b60006128ff602683611d1d565b915061290a826128a3565b604082019050919050565b6000602082019050818103600083015261292e816128f2565b9050919050565b7f4552433732313a206f70657261746f7220717565727920666f72206e6f6e657860008201527f697374656e7420746f6b656e0000000000000000000000000000000000000000602082015250565b6000612991602c83611d1d565b915061299c82612935565b604082019050919050565b600060208201905081810360008301526129c081612984565b9050919050565b7f4552433732313a207472616e736665722066726f6d20696e636f72726563742060008201527f6f776e6572000000000000000000000000000000000000000000000000000000602082015250565b6000612a23602583611d1d565b9150612a2e826129c7565b604082019050919050565b60006020820190508181036000830152612a5281612a16565b9050919050565b7f4552433732313a207472616e7366657220746f20746865207a65726f2061646460008201527f7265737300000000000000000000000000000000000000000000000000000000602082015250565b6000612ab5602483611d1d565b9150612ac082612a59565b604082019050919050565b60006020820190508181036000830152612ae481612aa8565b9050919050565b7f4e487b7100000000000000000000000000000000000000000000000000000000600052601160045260246000fd5b6000612b2582611dc4565b9150612b3083611dc4565b9250828203905081811115612b4857612b47612aeb565b5b92915050565b6000612b5982611dc4565b9150612b6483611dc4565b9250828201905080821115612b7c57612b7b612aeb565b5b92915050565b7f4552433732313a206d696e7420746f20746865207a65726f2061646472657373600082015250565b6000612bb8602083611d1d565b9150612bc382612b82565b602082019050919050565b60006020820190508181036000830152612be781612bab565b9050919050565b7f4552433732313a20746f6b656e20616c7265616479206d696e74656400000000600082015250565b6000612c24601c83611d1d565b9150612c2f82612bee565b602082019050919050565b60006020820190508181036000830152612c5381612c17565b9050919050565b7f45524337323155524953746f726167653a2055524920736574206f66206e6f6e60008201527f6578697374656e7420746f6b656e000000000000000000000000000000000000602082015250565b6000612cb6602e83611d1d565b9150612cc182612c5a565b604082019050919050565b60006020820190508181036000830152612ce581612ca9565b9050919050565b60008190508160005260206000209050919050565b60006020601f8301049050919050565b600082821b905092915050565b600060088302612d4e7fffffffffffffffffffffffffffffffffffffffffffffffffffffffffffffffff82612d11565b612d588683612d11565b95508019841693508086168417925050509392505050565b6000819050919050565b6000612d95612d90612d8b84611dc4565b612d70565b611dc4565b9050919050565b6000819050919050565b612daf83612d7a565b612dc3612dbb82612d9c565b848454612d1e565b825550505050565b600090565b612dd8612dcb565b612de3818484612da6565b505050565b5b81811015612e0757612dfc600082612dd0565b600181019050612de9565b5050565b601f821115612e4c57612e1d81612cec565b612e2684612d01565b81016020851015612e35578190505b612e49612e4185612d01565b830182612de8565b50505b505050565b600082821c905092915050565b6000612e6f60001984600802612e51565b1980831691505092915050565b6000612e888383612e5e565b9150826002028217905092915050565b612ea182611d12565b67ffffffffffffffff811115612eba57612eb9611f4c565b5b612ec48254612316565b612ecf828285612e0b565b600060209050601f831160018114612f025760008415612ef0578287015190505b612efa8582612e7c565b865550612f62565b601f198416612f1086612cec565b60005b82811015612f3857848901518255600182019150602085019450602081019050612f13565b86831015612f555784890151612f51601f891682612e5e565b8355505b6001600288020188555050505b505050505050565b7f4552433732313a20617070726f766520746f2063616c6c657200000000000000600082015250565b6000612fa0601983611d1d565b9150612fab82612f6a565b602082019050919050565b60006020820190508181036000830152612fcf81612f93565b9050919050565b7f4552433732313a207472616e7366657220746f206e6f6e20455243373231526560008201527f63656976657220696d706c656d656e7465720000000000000000000000000000602082015250565b6000613032603283611d1d565b915061303d82612fd6565b604082019050919050565b6000602082019050818103600083015261306181613025565b9050919050565b7f4552433732314d657461646174613a2055524920717565727920666f72206e6f60008201527f6e6578697374656e7420746f6b656e0000000000000000000000000000000000602082015250565b60006130c4602f83611d1d565b91506130cf82613068565b604082019050919050565b600060208201905081810360008301526130f3816130b7565b9050919050565b600081519050919050565b600082825260208201905092915050565b6000613121826130fa565b61312b8185613105565b935061313b818560208601611d2e565b61314481611d58565b840191505092915050565b60006080820190506131646000830187611e59565b6131716020830186611e59565b61317e60408301856120ed565b81810360608301526131908184613116565b905095945050505050565b6000815190506131aa81611c83565b92915050565b6000602082840312156131c6576131c5611c4d565b5b60006131d48482850161319b565b91505092915050565b60006131e882611dc4565b91507fffffffffffffffffffffffffffffffffffffffffffffffffffffffffffffffff820361321a57613219612aeb565b5b600182019050919050565b7f4e487b7100000000000000000000000000000000000000000000000000000000600052601260045260246000fd5b600061325f82611dc4565b915061326a83611dc4565b92508261327a57613279613225565b5b828204905092915050565b600061329082611dc4565b915061329b83611dc4565b9250826132ab576132aa613225565b5b828206905092915050565b7f4e487b7100000000000000000000000000000000000000000000000000000000600052603260045260246000fdfea26469706673582212205f7c0455b78e3245a6386cab69b01aa9127ef63071ab477ae40426d2d0cc0dd764736f6c63430008100033",
  "linkReferences": {},
  "deployedLinkReferences": {}
}